{
  "abi": [
    {
      "inputs": [],
      "stateMutability": "nonpayable",
      "type": "constructor"
    },
    {
      "anonymous": false,
      "inputs": [
        {
          "indexed": true,
          "internalType": "address",
          "name": "owner",
          "type": "address"
        },
        {
          "indexed": true,
          "internalType": "address",
          "name": "approved",
          "type": "address"
        },
        {
          "indexed": true,
          "internalType": "uint256",
          "name": "tokenId",
          "type": "uint256"
        }
      ],
      "name": "Approval",
      "type": "event"
    },
    {
      "anonymous": false,
      "inputs": [
        {
          "indexed": true,
          "internalType": "address",
          "name": "owner",
          "type": "address"
        },
        {
          "indexed": true,
          "internalType": "address",
          "name": "operator",
          "type": "address"
        },
        {
          "indexed": false,
          "internalType": "bool",
          "name": "approved",
          "type": "bool"
        }
      ],
      "name": "ApprovalForAll",
      "type": "event"
    },
    {
      "anonymous": false,
      "inputs": [
        {
          "indexed": true,
          "internalType": "address",
          "name": "previousOwner",
          "type": "address"
        },
        {
          "indexed": true,
          "internalType": "address",
          "name": "newOwner",
          "type": "address"
        }
      ],
      "name": "OwnershipTransferred",
      "type": "event"
    },
    {
      "anonymous": false,
      "inputs": [
        {
          "indexed": true,
          "internalType": "address",
          "name": "from",
          "type": "address"
        },
        {
          "indexed": true,
          "internalType": "address",
          "name": "to",
          "type": "address"
        },
        {
          "indexed": true,
          "internalType": "uint256",
          "name": "tokenId",
          "type": "uint256"
        }
      ],
      "name": "Transfer",
      "type": "event"
    },
    {
      "inputs": [
        {
          "internalType": "address",
          "name": "to",
          "type": "address"
        },
        {
          "internalType": "uint256",
          "name": "tokenId",
          "type": "uint256"
        }
      ],
      "name": "approve",
      "outputs": [],
      "stateMutability": "nonpayable",
      "type": "function"
    },
    {
      "inputs": [
        {
          "internalType": "address",
          "name": "owner",
          "type": "address"
        }
      ],
      "name": "balanceOf",
      "outputs": [
        {
          "internalType": "uint256",
          "name": "",
          "type": "uint256"
        }
      ],
      "stateMutability": "view",
      "type": "function"
    },
    {
      "inputs": [
        {
          "internalType": "address",
          "name": "to",
          "type": "address"
        },
        {
          "internalType": "uint256",
          "name": "startTime",
          "type": "uint256"
        },
        {
          "internalType": "uint256",
          "name": "frequencyInDays",
          "type": "uint256"
        }
      ],
      "name": "createTrust",
      "outputs": [
        {
          "internalType": "uint256",
          "name": "",
          "type": "uint256"
        }
      ],
      "stateMutability": "nonpayable",
      "type": "function"
    },
    {
      "inputs": [
        {
          "internalType": "uint256",
          "name": "trustId",
          "type": "uint256"
        },
        {
          "internalType": "address",
          "name": "erc20Token",
          "type": "address"
        },
        {
          "internalType": "uint256",
          "name": "amount",
          "type": "uint256"
        },
        {
          "internalType": "uint256",
          "name": "installmentAmount",
          "type": "uint256"
        }
      ],
      "name": "deposit",
      "outputs": [],
      "stateMutability": "nonpayable",
      "type": "function"
    },
    {
      "inputs": [
        {
          "internalType": "uint256",
          "name": "start",
          "type": "uint256"
        },
        {
          "internalType": "uint256",
          "name": "end",
          "type": "uint256"
        }
      ],
      "name": "distribute",
      "outputs": [],
      "stateMutability": "nonpayable",
      "type": "function"
    },
    {
      "inputs": [
        {
          "internalType": "uint256",
          "name": "tokenId",
          "type": "uint256"
        }
      ],
      "name": "getApproved",
      "outputs": [
        {
          "internalType": "address",
          "name": "",
          "type": "address"
        }
      ],
      "stateMutability": "view",
      "type": "function"
    },
    {
      "inputs": [
        {
          "internalType": "address",
          "name": "owner",
          "type": "address"
        },
        {
          "internalType": "address",
          "name": "operator",
          "type": "address"
        }
      ],
      "name": "isApprovedForAll",
      "outputs": [
        {
          "internalType": "bool",
          "name": "",
          "type": "bool"
        }
      ],
      "stateMutability": "view",
      "type": "function"
    },
    {
      "inputs": [],
      "name": "name",
      "outputs": [
        {
          "internalType": "string",
          "name": "",
          "type": "string"
        }
      ],
      "stateMutability": "view",
      "type": "function"
    },
    {
      "inputs": [],
      "name": "owner",
      "outputs": [
        {
          "internalType": "address",
          "name": "",
          "type": "address"
        }
      ],
      "stateMutability": "view",
      "type": "function"
    },
    {
      "inputs": [
        {
          "internalType": "uint256",
          "name": "tokenId",
          "type": "uint256"
        }
      ],
      "name": "ownerOf",
      "outputs": [
        {
          "internalType": "address",
          "name": "",
          "type": "address"
        }
      ],
      "stateMutability": "view",
      "type": "function"
    },
    {
      "inputs": [],
      "name": "renounceOwnership",
      "outputs": [],
      "stateMutability": "nonpayable",
      "type": "function"
    },
    {
      "inputs": [
        {
          "internalType": "address",
          "name": "from",
          "type": "address"
        },
        {
          "internalType": "address",
          "name": "to",
          "type": "address"
        },
        {
          "internalType": "uint256",
          "name": "tokenId",
          "type": "uint256"
        }
      ],
      "name": "safeTransferFrom",
      "outputs": [],
      "stateMutability": "nonpayable",
      "type": "function"
    },
    {
      "inputs": [
        {
          "internalType": "address",
          "name": "from",
          "type": "address"
        },
        {
          "internalType": "address",
          "name": "to",
          "type": "address"
        },
        {
          "internalType": "uint256",
          "name": "tokenId",
          "type": "uint256"
        },
        {
          "internalType": "bytes",
          "name": "data",
          "type": "bytes"
        }
      ],
      "name": "safeTransferFrom",
      "outputs": [],
      "stateMutability": "nonpayable",
      "type": "function"
    },
    {
      "inputs": [
        {
          "internalType": "address",
          "name": "operator",
          "type": "address"
        },
        {
          "internalType": "bool",
          "name": "approved",
          "type": "bool"
        }
      ],
      "name": "setApprovalForAll",
      "outputs": [],
      "stateMutability": "nonpayable",
      "type": "function"
    },
    {
      "inputs": [
        {
          "internalType": "bytes4",
          "name": "interfaceId",
          "type": "bytes4"
        }
      ],
      "name": "supportsInterface",
      "outputs": [
        {
          "internalType": "bool",
          "name": "",
          "type": "bool"
        }
      ],
      "stateMutability": "view",
      "type": "function"
    },
    {
      "inputs": [],
      "name": "symbol",
      "outputs": [
        {
          "internalType": "string",
          "name": "",
          "type": "string"
        }
      ],
      "stateMutability": "view",
      "type": "function"
    },
    {
      "inputs": [
        {
          "internalType": "uint256",
          "name": "index",
          "type": "uint256"
        }
      ],
      "name": "tokenByIndex",
      "outputs": [
        {
          "internalType": "uint256",
          "name": "",
          "type": "uint256"
        }
      ],
      "stateMutability": "view",
      "type": "function"
    },
    {
      "inputs": [
        {
          "internalType": "address",
          "name": "owner",
          "type": "address"
        },
        {
          "internalType": "uint256",
          "name": "index",
          "type": "uint256"
        }
      ],
      "name": "tokenOfOwnerByIndex",
      "outputs": [
        {
          "internalType": "uint256",
          "name": "",
          "type": "uint256"
        }
      ],
      "stateMutability": "view",
      "type": "function"
    },
    {
      "inputs": [
        {
          "internalType": "uint256",
          "name": "tokenId",
          "type": "uint256"
        }
      ],
      "name": "tokenURI",
      "outputs": [
        {
          "internalType": "string",
          "name": "",
          "type": "string"
        }
      ],
      "stateMutability": "view",
      "type": "function"
    },
    {
      "inputs": [],
      "name": "totalSupply",
      "outputs": [
        {
          "internalType": "uint256",
          "name": "",
          "type": "uint256"
        }
      ],
      "stateMutability": "view",
      "type": "function"
    },
    {
      "inputs": [
        {
          "internalType": "address",
          "name": "from",
          "type": "address"
        },
        {
          "internalType": "address",
          "name": "to",
          "type": "address"
        },
        {
          "internalType": "uint256",
          "name": "tokenId",
          "type": "uint256"
        }
      ],
      "name": "transferFrom",
      "outputs": [],
      "stateMutability": "nonpayable",
      "type": "function"
    },
    {
      "inputs": [
        {
          "internalType": "address",
          "name": "newOwner",
          "type": "address"
        }
      ],
      "name": "transferOwnership",
      "outputs": [],
      "stateMutability": "nonpayable",
      "type": "function"
    },
    {
      "inputs": [
        {
          "internalType": "uint256",
          "name": "trustId",
          "type": "uint256"
        },
        {
          "internalType": "uint256",
          "name": "startTime",
          "type": "uint256"
        },
        {
          "internalType": "uint256",
          "name": "frequencyInDays",
          "type": "uint256"
        }
      ],
      "name": "updateTrust",
      "outputs": [],
      "stateMutability": "nonpayable",
      "type": "function"
    },
    {
      "inputs": [
        {
          "internalType": "uint256",
          "name": "trustId",
          "type": "uint256"
        },
        {
          "internalType": "address",
          "name": "erc20Token",
          "type": "address"
        },
        {
          "internalType": "uint256",
          "name": "amount",
          "type": "uint256"
        }
      ],
      "name": "withdraw",
      "outputs": [],
      "stateMutability": "nonpayable",
      "type": "function"
    }
  ],
  "bytecode": {
    "object": "0x60806040523480156200001157600080fd5b50604080518082018252600881526713d253d51c9d5cdd60c21b6020808301918252835180850190945260038452624f494f60e81b9084015281519192916200005d91600091620000ec565b50805162000073906001906020840190620000ec565b505050620000906200008a6200009660201b60201c565b6200009a565b620001ce565b3390565b600a80546001600160a01b038381166001600160a01b0319831681179093556040519116919082907f8be0079c531659141344cd1fd0a4f28419497f9722a3daafe3b4186f6b6457e090600090a35050565b828054620000fa9062000192565b90600052602060002090601f0160209004810192826200011e576000855562000169565b82601f106200013957805160ff191683800117855562000169565b8280016001018555821562000169579182015b82811115620001695782518255916020019190600101906200014c565b50620001779291506200017b565b5090565b5b808211156200017757600081556001016200017c565b600181811c90821680620001a757607f821691505b602082108103620001c857634e487b7160e01b600052602260045260246000fd5b50919050565b612b7e80620001de6000396000f3fe608060405234801561001057600080fd5b50600436106101585760003560e01c80636f0372af116100c3578063a22cb4651161007c578063a22cb465146102cb578063b88d4fde146102de578063c87b56dd146102f1578063e63697c814610304578063e985e9c514610317578063f2fde38b1461035357600080fd5b80636f0372af1461027157806370a0823114610284578063715018a6146102975780637625391a1461029f5780638da5cb5b146102b257806395d89b41146102c357600080fd5b80632f745c59116101155780632f745c59146101ff5780633b8317ee1461021257806342842e0e146102255780634f6ccce7146102385780636352211e1461024b5780636ad5ff501461025e57600080fd5b806301ffc9a71461015d57806306fdde0314610185578063081812fc1461019a578063095ea7b3146101c557806318160ddd146101da57806323b872dd146101ec575b600080fd5b61017061016b36600461209c565b610366565b60405190151581526020015b60405180910390f35b61018d610377565b60405161017c9190612111565b6101ad6101a8366004612124565b610409565b6040516001600160a01b03909116815260200161017c565b6101d86101d3366004612152565b610430565b005b6008545b60405190815260200161017c565b6101d86101fa36600461217e565b610545565b6101de61020d366004612152565b610576565b6101d86102203660046121bf565b61060c565b6101d861023336600461217e565b610672565b6101de610246366004612124565b61068d565b6101ad610259366004612124565b610720565b6101de61026c3660046121eb565b610780565b6101d861027f366004612220565b6107df565b6101de61029236600461225d565b610a8f565b6101d8610b15565b6101d86102ad36600461227a565b610b29565b600a546001600160a01b03166101ad565b61018d610d96565b6101d86102d93660046122aa565b610da5565b6101d86102ec366004612352565b610db4565b61018d6102ff366004612124565b610de6565b6101d8610312366004612401565b505050565b610170610325366004612428565b6001600160a01b03918216600090815260056020908152604080832093909416825291909152205460ff1690565b6101d861036136600461225d565b6111eb565b600061037182611264565b92915050565b60606000805461038690612456565b80601f01602080910402602001604051908101604052809291908181526020018280546103b290612456565b80156103ff5780601f106103d4576101008083540402835291602001916103ff565b820191906000526020600020905b8154815290600101906020018083116103e257829003601f168201915b5050505050905090565b600061041482611289565b506000908152600460205260409020546001600160a01b031690565b600061043b82610720565b9050806001600160a01b0316836001600160a01b0316036104ad5760405162461bcd60e51b815260206004820152602160248201527f4552433732313a20617070726f76616c20746f2063757272656e74206f776e656044820152603960f91b60648201526084015b60405180910390fd5b336001600160a01b03821614806104c957506104c98133610325565b61053b5760405162461bcd60e51b815260206004820152603e60248201527f4552433732313a20617070726f76652063616c6c6572206973206e6f7420746f60448201527f6b656e206f776e6572206e6f7220617070726f76656420666f7220616c6c000060648201526084016104a4565b61031283836112e8565b61054f3382611356565b61056b5760405162461bcd60e51b81526004016104a490612490565b6103128383836113d5565b600061058183610a8f565b82106105e35760405162461bcd60e51b815260206004820152602b60248201527f455243373231456e756d657261626c653a206f776e657220696e646578206f7560448201526a74206f6620626f756e647360a81b60648201526084016104a4565b506001600160a01b03919091166000908152600660209081526040808320938352929052205490565b6000838152600c6020526040902080546001600160a01b031633146106615760405162461bcd60e51b815260206004820152600b60248201526a2737ba1031b932b0ba37b960a91b60448201526064016104a4565b600481019290925560059091015550565b61031283838360405180602001604052806000815250610db4565b600061069860085490565b82106106fb5760405162461bcd60e51b815260206004820152602c60248201527f455243373231456e756d657261626c653a20676c6f62616c20696e646578206f60448201526b7574206f6620626f756e647360a01b60648201526084016104a4565b6008828154811061070e5761070e6124de565b90600052602060002001549050919050565b6000818152600260205260408120546001600160a01b0316806103715760405162461bcd60e51b8152602060048201526018602482015277115490cdcc8c4e881a5b9d985b1a59081d1bdad95b88125160421b60448201526064016104a4565b60008061078c600b5490565b905061079c600b80546001019055565b6107a6858261157c565b6000818152600c6020526040812080546001600160a01b0319163317815560048101869055600581018590556006015590509392505050565b6000848152600c6020526040902080546001600160a01b031633146108345760405162461bcd60e51b815260206004820152600b60248201526a2737ba1031b932b0ba37b960a91b60448201526064016104a4565b604051636eb1769f60e11b8152336004820152306024820152849084906001600160a01b0383169063dd62ed3e90604401602060405180830381865afa158015610882573d6000803e3d6000fd5b505050506040513d601f19601f820116820180604052508101906108a691906124f4565b10156108f45760405162461bcd60e51b815260206004820152601a60248201527f546f6b656e20616c6c6f77616e6365206e6f7420656e6f75676800000000000060448201526064016104a4565b6040516323b872dd60e01b8152336004820152306024820152604481018590526001600160a01b038216906323b872dd906064016020604051808303816000875af1158015610947573d6000803e3d6000fd5b505050506040513d601f19601f8201168201806040525081019061096b919061250d565b6109a95760405162461bcd60e51b815260206004820152600f60248201526e151c985b9cd9995c8819985a5b1959608a1b60448201526064016104a4565b60005b6002830154811015610a315760008181526001840160205260409020546001600160a01b03808816911603610a1f5760008181526001808501602052604082200180548792906109fd908490612540565b9091555050600090815260019092016020525060409020600201819055610a89565b80610a2981612558565b9150506109ac565b506000610a3f836002015490565b9050610a518360020180546001019055565b600090815260019283016020526040902080546001600160a01b0319166001600160a01b038716178155918201849055506002018190555b50505050565b60006001600160a01b038216610af95760405162461bcd60e51b815260206004820152602960248201527f4552433732313a2061646472657373207a65726f206973206e6f7420612076616044820152683634b21037bbb732b960b91b60648201526084016104a4565b506001600160a01b031660009081526003602052604090205490565b610b1d611596565b610b2760006115f0565b565b42600d55815b610b4182610b3c600b5490565b611642565b811015610312576000818152600c60205260409020600401544210610d84576000818152600c6020526040812060050154610b7f9062015180612571565b6000838152600c6020526040902060040154610b9b9042612590565b610ba591906125bd565b6000838152600c602052604081206006015491925090610bc59083612590565b6040516331a9108f60e11b8152600481018590529091506000903090636352211e90602401602060405180830381865afa158015610c07573d6000803e3d6000fd5b505050506040513d601f19601f82011682018060405250810190610c2b91906125d1565b905060005b6000858152600c6020526040902060020154811015610d59576000858152600c60209081526040808320848452600101909152812060020154610c74908590612571565b6000878152600c60209081526040808320868452600190810190925290912080549101549192506001600160a01b031690821115610cd0576000878152600c602090815260408083208684526001908101909252909120015491505b60405163a9059cbb60e01b81526001600160a01b0385811660048301526024820184905282169063a9059cbb906044016020604051808303816000875af1158015610d1f573d6000803e3d6000fd5b505050506040513d601f19601f82011682018060405250810190610d43919061250d565b5050508080610d5190612558565b915050610c30565b506000848152600c602052604081206006018054849290610d7b908490612540565b90915550505050505b80610d8e81612558565b915050610b2f565b60606001805461038690612456565b610db033838361165a565b5050565b610dbe3383611356565b610dda5760405162461bcd60e51b81526004016104a490612490565b610a8984848484611728565b6000818152600c602090815260408083205481518083018352601881527f4f494f54727573742c20746f6b656e732068656c643a200a00000000000000008185015282519384019092528383526060936001600160a01b0390911692905b6000868152600c60205260409020600201548110156110d8576000868152600c602090815260408083208484526001019091528082205481516306fdde0360e01b815291516001600160a01b0390911692869284926306fdde03926004808401939192918290030181865afa158015610ec1573d6000803e3d6000fd5b505050506040513d6000823e601f3d908101601f19168201604052610ee991908101906125ee565b6000898152600c6020908152604080832087845260019081019092529091200154610f139061175b565b610f80846001600160a01b031663313ce5676040518163ffffffff1660e01b8152600401602060405180830381865afa158015610f54573d6000803e3d6000fd5b505050506040513d601f19601f82011682018060405250810190610f789190612665565b60ff1661175b565b604051602001610f939493929190612688565b60408051601f1981840301815291905293508115610fce5782604051602001610fbc919061272c565b60405160208183030381529060405292505b82816001600160a01b03166306fdde036040518163ffffffff1660e01b8152600401600060405180830381865afa15801561100d573d6000803e3d6000fd5b505050506040513d6000823e601f3d908101601f1916820160405261103591908101906125ee565b6000898152600c602090815260408083208784526001908101909252909120015461105f9061175b565b6110a0846001600160a01b031663313ce5676040518163ffffffff1660e01b8152600401602060405180830381865afa158015610f54573d6000803e3d6000fd5b6040516020016110b39493929190612751565b60405160208183030381529060405292505080806110d090612558565b915050610e44565b506000826110e58761175b565b6110ee8661185c565b6000898152600c60205260409020600401546111099061175b565b60405160200161111c94939291906127fc565b60408051601f198184030181529181526000888152600c602052206005015490915081906111499061175b565b6000888152600c60205260409020600601546111649061175b565b846040516020016111789493929190612926565b60408051601f19818403018152828201909152601d82527f646174613a6170706c69636174696f6e2f6a736f6e3b6261736536342c000000602083015291506111c082611872565b6040516020016111d19291906129ec565b604051602081830303815290604052945050505050919050565b6111f3611596565b6001600160a01b0381166112585760405162461bcd60e51b815260206004820152602660248201527f4f776e61626c653a206e6577206f776e657220697320746865207a65726f206160448201526564647265737360d01b60648201526084016104a4565b611261816115f0565b50565b60006001600160e01b0319821663780e9d6360e01b14806103715750610371826119c5565b6000818152600260205260409020546001600160a01b03166112615760405162461bcd60e51b8152602060048201526018602482015277115490cdcc8c4e881a5b9d985b1a59081d1bdad95b88125160421b60448201526064016104a4565b600081815260046020526040902080546001600160a01b0319166001600160a01b038416908117909155819061131d82610720565b6001600160a01b03167f8c5be1e5ebec7d5bd14f71427d1e84f3dd0314c0f7b2291e5b200ac8c7c3b92560405160405180910390a45050565b60008061136283610720565b9050806001600160a01b0316846001600160a01b031614806113a957506001600160a01b0380821660009081526005602090815260408083209388168352929052205460ff165b806113cd5750836001600160a01b03166113c284610409565b6001600160a01b0316145b949350505050565b826001600160a01b03166113e882610720565b6001600160a01b03161461144c5760405162461bcd60e51b815260206004820152602560248201527f4552433732313a207472616e736665722066726f6d20696e636f72726563742060448201526437bbb732b960d91b60648201526084016104a4565b6001600160a01b0382166114ae5760405162461bcd60e51b8152602060048201526024808201527f4552433732313a207472616e7366657220746f20746865207a65726f206164646044820152637265737360e01b60648201526084016104a4565b6114b9838383611a15565b6114c46000826112e8565b6001600160a01b03831660009081526003602052604081208054600192906114ed908490612590565b90915550506001600160a01b038216600090815260036020526040812080546001929061151b908490612540565b909155505060008181526002602052604080822080546001600160a01b0319166001600160a01b0386811691821790925591518493918716917fddf252ad1be2c89b69c2b068fc378daa952ba7f163c4a11628f55a4df523b3ef91a4505050565b610db0828260405180602001604052806000815250611a20565b600a546001600160a01b03163314610b275760405162461bcd60e51b815260206004820181905260248201527f4f776e61626c653a2063616c6c6572206973206e6f7420746865206f776e657260448201526064016104a4565b600a80546001600160a01b038381166001600160a01b0319831681179093556040519116919082907f8be0079c531659141344cd1fd0a4f28419497f9722a3daafe3b4186f6b6457e090600090a35050565b60008183106116515781611653565b825b9392505050565b816001600160a01b0316836001600160a01b0316036116bb5760405162461bcd60e51b815260206004820152601960248201527f4552433732313a20617070726f766520746f2063616c6c65720000000000000060448201526064016104a4565b6001600160a01b03838116600081815260056020908152604080832094871680845294825291829020805460ff191686151590811790915591519182527f17307eab39ab6107e8899845ad3d59bd9653f200f220920489ca2b5937696c31910160405180910390a3505050565b6117338484846113d5565b61173f84848484611a53565b610a895760405162461bcd60e51b81526004016104a490612a1b565b6060816000036117825750506040805180820190915260018152600360fc1b602082015290565b8160005b81156117ac578061179681612558565b91506117a59050600a836125bd565b9150611786565b60008167ffffffffffffffff8111156117c7576117c76122e3565b6040519080825280601f01601f1916602001820160405280156117f1576020820181803683370190505b5090505b84156113cd57611806600183612590565b9150611813600a86612a6d565b61181e906030612540565b60f81b818381518110611833576118336124de565b60200101906001600160f81b031916908160001a905350611855600a866125bd565b94506117f5565b60606103716001600160a01b0383166014611b54565b6060815160000361189157505060408051602081019091526000815290565b6000604051806060016040528060408152602001612b0960409139905060006003845160026118c09190612540565b6118ca91906125bd565b6118d5906004612571565b67ffffffffffffffff8111156118ed576118ed6122e3565b6040519080825280601f01601f191660200182016040528015611917576020820181803683370190505b509050600182016020820185865187015b80821015611983576003820191508151603f8160121c168501518453600184019350603f81600c1c168501518453600184019350603f8160061c168501518453600184019350603f8116850151845350600183019250611928565b505060038651066001811461199f57600281146119b2576119ba565b603d6001830353603d60028303536119ba565b603d60018303535b509195945050505050565b60006001600160e01b031982166380ac58cd60e01b14806119f657506001600160e01b03198216635b5e139f60e01b145b8061037157506301ffc9a760e01b6001600160e01b0319831614610371565b610312838383611cf0565b611a2a8383611da8565b611a376000848484611a53565b6103125760405162461bcd60e51b81526004016104a490612a1b565b60006001600160a01b0384163b15611b4957604051630a85bd0160e11b81526001600160a01b0385169063150b7a0290611a97903390899088908890600401612a81565b6020604051808303816000875af1925050508015611ad2575060408051601f3d908101601f19168201909252611acf91810190612abe565b60015b611b2f573d808015611b00576040519150601f19603f3d011682016040523d82523d6000602084013e611b05565b606091505b508051600003611b275760405162461bcd60e51b81526004016104a490612a1b565b805181602001fd5b6001600160e01b031916630a85bd0160e11b1490506113cd565b506001949350505050565b60606000611b63836002612571565b611b6e906002612540565b67ffffffffffffffff811115611b8657611b866122e3565b6040519080825280601f01601f191660200182016040528015611bb0576020820181803683370190505b509050600360fc1b81600081518110611bcb57611bcb6124de565b60200101906001600160f81b031916908160001a905350600f60fb1b81600181518110611bfa57611bfa6124de565b60200101906001600160f81b031916908160001a9053506000611c1e846002612571565b611c29906001612540565b90505b6001811115611ca1576f181899199a1a9b1b9c1cb0b131b232b360811b85600f1660108110611c5d57611c5d6124de565b1a60f81b828281518110611c7357611c736124de565b60200101906001600160f81b031916908160001a90535060049490941c93611c9a81612adb565b9050611c2c565b5083156116535760405162461bcd60e51b815260206004820181905260248201527f537472696e67733a20686578206c656e67746820696e73756666696369656e7460448201526064016104a4565b6001600160a01b038316611d4b57611d4681600880546000838152600960205260408120829055600182018355919091527ff3f7a9fe364faab93b216da50a3214154f22a0a2b415b23a84c8169e8b636ee30155565b611d6e565b816001600160a01b0316836001600160a01b031614611d6e57611d6e8382611ef6565b6001600160a01b038216611d855761031281611f93565b826001600160a01b0316826001600160a01b031614610312576103128282612042565b6001600160a01b038216611dfe5760405162461bcd60e51b815260206004820181905260248201527f4552433732313a206d696e7420746f20746865207a65726f206164647265737360448201526064016104a4565b6000818152600260205260409020546001600160a01b031615611e635760405162461bcd60e51b815260206004820152601c60248201527f4552433732313a20746f6b656e20616c7265616479206d696e7465640000000060448201526064016104a4565b611e6f60008383611a15565b6001600160a01b0382166000908152600360205260408120805460019290611e98908490612540565b909155505060008181526002602052604080822080546001600160a01b0319166001600160a01b03861690811790915590518392907fddf252ad1be2c89b69c2b068fc378daa952ba7f163c4a11628f55a4df523b3ef908290a45050565b60006001611f0384610a8f565b611f0d9190612590565b600083815260076020526040902054909150808214611f60576001600160a01b03841660009081526006602090815260408083208584528252808320548484528184208190558352600790915290208190555b5060009182526007602090815260408084208490556001600160a01b039094168352600681528383209183525290812055565b600854600090611fa590600190612590565b60008381526009602052604081205460088054939450909284908110611fcd57611fcd6124de565b906000526020600020015490508060088381548110611fee57611fee6124de565b600091825260208083209091019290925582815260099091526040808220849055858252812055600880548061202657612026612af2565b6001900381819060005260206000200160009055905550505050565b600061204d83610a8f565b6001600160a01b039093166000908152600660209081526040808320868452825280832085905593825260079052919091209190915550565b6001600160e01b03198116811461126157600080fd5b6000602082840312156120ae57600080fd5b813561165381612086565b60005b838110156120d45781810151838201526020016120bc565b83811115610a895750506000910152565b600081518084526120fd8160208601602086016120b9565b601f01601f19169290920160200192915050565b60208152600061165360208301846120e5565b60006020828403121561213657600080fd5b5035919050565b6001600160a01b038116811461126157600080fd5b6000806040838503121561216557600080fd5b82356121708161213d565b946020939093013593505050565b60008060006060848603121561219357600080fd5b833561219e8161213d565b925060208401356121ae8161213d565b929592945050506040919091013590565b6000806000606084860312156121d457600080fd5b505081359360208301359350604090920135919050565b60008060006060848603121561220057600080fd5b833561220b8161213d565b95602085013595506040909401359392505050565b6000806000806080858703121561223657600080fd5b8435935060208501356122488161213d565b93969395505050506040820135916060013590565b60006020828403121561226f57600080fd5b81356116538161213d565b6000806040838503121561228d57600080fd5b50508035926020909101359150565b801515811461126157600080fd5b600080604083850312156122bd57600080fd5b82356122c88161213d565b915060208301356122d88161229c565b809150509250929050565b634e487b7160e01b600052604160045260246000fd5b604051601f8201601f1916810167ffffffffffffffff81118282101715612322576123226122e3565b604052919050565b600067ffffffffffffffff821115612344576123446122e3565b50601f01601f191660200190565b6000806000806080858703121561236857600080fd5b84356123738161213d565b935060208501356123838161213d565b925060408501359150606085013567ffffffffffffffff8111156123a657600080fd5b8501601f810187136123b757600080fd5b80356123ca6123c58261232a565b6122f9565b8181528860208385010111156123df57600080fd5b8160208401602083013760006020838301015280935050505092959194509250565b60008060006060848603121561241657600080fd5b8335925060208401356121ae8161213d565b6000806040838503121561243b57600080fd5b82356124468161213d565b915060208301356122d88161213d565b600181811c9082168061246a57607f821691505b60208210810361248a57634e487b7160e01b600052602260045260246000fd5b50919050565b6020808252602e908201527f4552433732313a2063616c6c6572206973206e6f7420746f6b656e206f776e6560408201526d1c881b9bdc88185c1c1c9bdd995960921b606082015260800190565b634e487b7160e01b600052603260045260246000fd5b60006020828403121561250657600080fd5b5051919050565b60006020828403121561251f57600080fd5b81516116538161229c565b634e487b7160e01b600052601160045260246000fd5b600082198211156125535761255361252a565b500190565b60006001820161256a5761256a61252a565b5060010190565b600081600019048311821515161561258b5761258b61252a565b500290565b6000828210156125a2576125a261252a565b500390565b634e487b7160e01b600052601260045260246000fd5b6000826125cc576125cc6125a7565b500490565b6000602082840312156125e357600080fd5b81516116538161213d565b60006020828403121561260057600080fd5b815167ffffffffffffffff81111561261757600080fd5b8201601f8101841361262857600080fd5b80516126366123c58261232a565b81815285602083850101111561264b57600080fd5b61265c8260208301602086016120b9565b95945050505050565b60006020828403121561267757600080fd5b815160ff8116811461165357600080fd5b6000855161269a818460208a016120b9565b61016960f51b90830190815285516126b9816002840160208a016120b9565b6801030b6b7bab73a1d160bd1b6002929091019182015284516126e381600b8401602089016120b9565b6a010143232b1b4b6b0b639960ad1b600b9290910191820152835161270f8160168401602088016120b9565b61148560f11b601692909101918201526018019695505050505050565b6000825161273e8184602087016120b9565b600b60fa1b920191825250600101919050565b60008551612763818460208a016120b9565b673d913730b6b2911d60c11b9083019081528551612788816008840160208a016120b9565b69161130b6b7bab73a111d60b11b6008929091019182015284516127b38160128401602089016120b9565b6b16113232b1b4b6b0b639911d60a11b6012929091019182015283516127e081601e8401602088016120b9565b607d60f81b601e9290910191820152601f019695505050505050565b6f3d913232b9b1b934b83a34b7b7111d1160811b81528451600090612828816010850160208a016120b9565b7f222c226e616d65223a224f494f5472757374204e4654202300000000000000006010918401918201528551612865816028840160208a016120b9565b7f222c22696d616765223a22646174613a696d6167652f7376673b62617365363460289290910191820152600b60fa1b60488201527f222c226261636b67726f756e645f636f6c6f72223a226666666666662200000060498201526b161131b932b0ba37b9111d1160a11b606682015284516128e88160728401602089016120b9565b6e161139ba30b93a2fba34b6b2911d1160891b6072929091019182015283516129188160818401602088016120b9565b016081019695505050505050565b60008551612938818460208a016120b9565b751611333932b8bab2b731bcafb4b72fb230bcb9911d1160511b908301908152855161296b816016840160208a016120b9565b75161134b739ba30b63636b2b73a39afb830b4b2111d1160511b6016929091019182015284516129a281602c8401602089016120b9565b6b222c22746f6b656e73223a5b60a01b602c929091019182015283516129cf8160388401602088016120b9565b615d7d60f01b60389290910191820152603a019695505050505050565b600083516129fe8184602088016120b9565b835190830190612a128183602088016120b9565b01949350505050565b60208082526032908201527f4552433732313a207472616e7366657220746f206e6f6e20455243373231526560408201527131b2b4bb32b91034b6b83632b6b2b73a32b960711b606082015260800190565b600082612a7c57612a7c6125a7565b500690565b6001600160a01b0385811682528416602082015260408101839052608060608201819052600090612ab4908301846120e5565b9695505050505050565b600060208284031215612ad057600080fd5b815161165381612086565b600081612aea57612aea61252a565b506000190190565b634e487b7160e01b600052603160045260246000fdfe4142434445464748494a4b4c4d4e4f505152535455565758595a6162636465666768696a6b6c6d6e6f707172737475767778797a303132333435363738392b2fa264697066735822122092251b7b713c37521e2f802ada26eb6c2d04fc0c47f102951d48b010fbcf8fd964736f6c634300080d0033",
    "linkReferences": {}
  },
  "methodIdentifiers": {
    "approve(address,uint256)": "095ea7b3",
    "balanceOf(address)": "70a08231",
    "createTrust(address,uint256,uint256)": "6ad5ff50",
    "deposit(uint256,address,uint256,uint256)": "6f0372af",
    "distribute(uint256,uint256)": "7625391a",
    "getApproved(uint256)": "081812fc",
    "isApprovedForAll(address,address)": "e985e9c5",
    "name()": "06fdde03",
    "owner()": "8da5cb5b",
    "ownerOf(uint256)": "6352211e",
    "renounceOwnership()": "715018a6",
    "safeTransferFrom(address,address,uint256)": "42842e0e",
    "safeTransferFrom(address,address,uint256,bytes)": "b88d4fde",
    "setApprovalForAll(address,bool)": "a22cb465",
    "supportsInterface(bytes4)": "01ffc9a7",
    "symbol()": "95d89b41",
    "tokenByIndex(uint256)": "4f6ccce7",
    "tokenOfOwnerByIndex(address,uint256)": "2f745c59",
    "tokenURI(uint256)": "c87b56dd",
    "totalSupply()": "18160ddd",
    "transferFrom(address,address,uint256)": "23b872dd",
    "transferOwnership(address)": "f2fde38b",
    "updateTrust(uint256,uint256,uint256)": "3b8317ee",
    "withdraw(uint256,address,uint256)": "e63697c8"
  },
  "id": 21
}