{
  "abi": [
    {
      "inputs": [],
      "stateMutability": "nonpayable",
      "type": "constructor"
    },
    {
      "anonymous": false,
      "inputs": [
        {
          "indexed": true,
          "internalType": "address",
          "name": "owner",
          "type": "address"
        },
        {
          "indexed": true,
          "internalType": "address",
          "name": "approved",
          "type": "address"
        },
        {
          "indexed": true,
          "internalType": "uint256",
          "name": "tokenId",
          "type": "uint256"
        }
      ],
      "name": "Approval",
      "type": "event"
    },
    {
      "anonymous": false,
      "inputs": [
        {
          "indexed": true,
          "internalType": "address",
          "name": "owner",
          "type": "address"
        },
        {
          "indexed": true,
          "internalType": "address",
          "name": "operator",
          "type": "address"
        },
        {
          "indexed": false,
          "internalType": "bool",
          "name": "approved",
          "type": "bool"
        }
      ],
      "name": "ApprovalForAll",
      "type": "event"
    },
    {
      "anonymous": false,
      "inputs": [
        {
          "indexed": true,
          "internalType": "address",
          "name": "previousOwner",
          "type": "address"
        },
        {
          "indexed": true,
          "internalType": "address",
          "name": "newOwner",
          "type": "address"
        }
      ],
      "name": "OwnershipTransferred",
      "type": "event"
    },
    {
      "anonymous": false,
      "inputs": [
        {
          "indexed": true,
          "internalType": "address",
          "name": "from",
          "type": "address"
        },
        {
          "indexed": true,
          "internalType": "address",
          "name": "to",
          "type": "address"
        },
        {
          "indexed": true,
          "internalType": "uint256",
          "name": "tokenId",
          "type": "uint256"
        }
      ],
      "name": "Transfer",
      "type": "event"
    },
    {
      "inputs": [
        {
          "internalType": "address",
          "name": "to",
          "type": "address"
        },
        {
          "internalType": "uint256",
          "name": "tokenId",
          "type": "uint256"
        }
      ],
      "name": "approve",
      "outputs": [],
      "stateMutability": "nonpayable",
      "type": "function"
    },
    {
      "inputs": [
        {
          "internalType": "address",
          "name": "owner",
          "type": "address"
        }
      ],
      "name": "balanceOf",
      "outputs": [
        {
          "internalType": "uint256",
          "name": "",
          "type": "uint256"
        }
      ],
      "stateMutability": "view",
      "type": "function"
    },
    {
      "inputs": [
        {
          "internalType": "address",
          "name": "to",
          "type": "address"
        },
        {
          "internalType": "uint256",
          "name": "startTime",
          "type": "uint256"
        },
        {
          "internalType": "uint256",
          "name": "frequencyInDays",
          "type": "uint256"
        }
      ],
      "name": "createTrust",
      "outputs": [
        {
          "internalType": "uint256",
          "name": "",
          "type": "uint256"
        }
      ],
      "stateMutability": "nonpayable",
      "type": "function"
    },
    {
      "inputs": [
        {
          "internalType": "uint256",
          "name": "trustId",
          "type": "uint256"
        },
        {
          "internalType": "address",
          "name": "erc20Token",
          "type": "address"
        },
        {
          "internalType": "uint256",
          "name": "amount",
          "type": "uint256"
        },
        {
          "internalType": "uint256",
          "name": "installmentAmount",
          "type": "uint256"
        }
      ],
      "name": "deposit",
      "outputs": [],
      "stateMutability": "nonpayable",
      "type": "function"
    },
    {
      "inputs": [
        {
          "internalType": "uint256",
          "name": "start",
          "type": "uint256"
        },
        {
          "internalType": "uint256",
          "name": "end",
          "type": "uint256"
        }
      ],
      "name": "distribute",
      "outputs": [],
      "stateMutability": "nonpayable",
      "type": "function"
    },
    {
      "inputs": [
        {
          "internalType": "uint256",
          "name": "tokenId",
          "type": "uint256"
        }
      ],
      "name": "getApproved",
      "outputs": [
        {
          "internalType": "address",
          "name": "",
          "type": "address"
        }
      ],
      "stateMutability": "view",
      "type": "function"
    },
    {
      "inputs": [
        {
          "internalType": "uint256",
          "name": "trustId",
          "type": "uint256"
        },
        {
          "internalType": "address",
          "name": "erc20Token",
          "type": "address"
        }
      ],
      "name": "getTokenAmount",
      "outputs": [
        {
          "internalType": "uint256",
          "name": "",
          "type": "uint256"
        }
      ],
      "stateMutability": "view",
      "type": "function"
    },
    {
      "inputs": [
        {
          "internalType": "address",
          "name": "owner",
          "type": "address"
        },
        {
          "internalType": "address",
          "name": "operator",
          "type": "address"
        }
      ],
      "name": "isApprovedForAll",
      "outputs": [
        {
          "internalType": "bool",
          "name": "",
          "type": "bool"
        }
      ],
      "stateMutability": "view",
      "type": "function"
    },
    {
      "inputs": [],
      "name": "name",
      "outputs": [
        {
          "internalType": "string",
          "name": "",
          "type": "string"
        }
      ],
      "stateMutability": "view",
      "type": "function"
    },
    {
      "inputs": [],
      "name": "owner",
      "outputs": [
        {
          "internalType": "address",
          "name": "",
          "type": "address"
        }
      ],
      "stateMutability": "view",
      "type": "function"
    },
    {
      "inputs": [
        {
          "internalType": "uint256",
          "name": "tokenId",
          "type": "uint256"
        }
      ],
      "name": "ownerOf",
      "outputs": [
        {
          "internalType": "address",
          "name": "",
          "type": "address"
        }
      ],
      "stateMutability": "view",
      "type": "function"
    },
    {
      "inputs": [],
      "name": "renounceOwnership",
      "outputs": [],
      "stateMutability": "nonpayable",
      "type": "function"
    },
    {
      "inputs": [
        {
          "internalType": "address",
          "name": "from",
          "type": "address"
        },
        {
          "internalType": "address",
          "name": "to",
          "type": "address"
        },
        {
          "internalType": "uint256",
          "name": "tokenId",
          "type": "uint256"
        }
      ],
      "name": "safeTransferFrom",
      "outputs": [],
      "stateMutability": "nonpayable",
      "type": "function"
    },
    {
      "inputs": [
        {
          "internalType": "address",
          "name": "from",
          "type": "address"
        },
        {
          "internalType": "address",
          "name": "to",
          "type": "address"
        },
        {
          "internalType": "uint256",
          "name": "tokenId",
          "type": "uint256"
        },
        {
          "internalType": "bytes",
          "name": "data",
          "type": "bytes"
        }
      ],
      "name": "safeTransferFrom",
      "outputs": [],
      "stateMutability": "nonpayable",
      "type": "function"
    },
    {
      "inputs": [
        {
          "internalType": "address",
          "name": "operator",
          "type": "address"
        },
        {
          "internalType": "bool",
          "name": "approved",
          "type": "bool"
        }
      ],
      "name": "setApprovalForAll",
      "outputs": [],
      "stateMutability": "nonpayable",
      "type": "function"
    },
    {
      "inputs": [
        {
          "internalType": "bytes4",
          "name": "interfaceId",
          "type": "bytes4"
        }
      ],
      "name": "supportsInterface",
      "outputs": [
        {
          "internalType": "bool",
          "name": "",
          "type": "bool"
        }
      ],
      "stateMutability": "view",
      "type": "function"
    },
    {
      "inputs": [],
      "name": "symbol",
      "outputs": [
        {
          "internalType": "string",
          "name": "",
          "type": "string"
        }
      ],
      "stateMutability": "view",
      "type": "function"
    },
    {
      "inputs": [
        {
          "internalType": "uint256",
          "name": "index",
          "type": "uint256"
        }
      ],
      "name": "tokenByIndex",
      "outputs": [
        {
          "internalType": "uint256",
          "name": "",
          "type": "uint256"
        }
      ],
      "stateMutability": "view",
      "type": "function"
    },
    {
      "inputs": [
        {
          "internalType": "address",
          "name": "owner",
          "type": "address"
        },
        {
          "internalType": "uint256",
          "name": "index",
          "type": "uint256"
        }
      ],
      "name": "tokenOfOwnerByIndex",
      "outputs": [
        {
          "internalType": "uint256",
          "name": "",
          "type": "uint256"
        }
      ],
      "stateMutability": "view",
      "type": "function"
    },
    {
      "inputs": [
        {
          "internalType": "uint256",
          "name": "tokenId",
          "type": "uint256"
        }
      ],
      "name": "tokenURI",
      "outputs": [
        {
          "internalType": "string",
          "name": "",
          "type": "string"
        }
      ],
      "stateMutability": "view",
      "type": "function"
    },
    {
      "inputs": [],
      "name": "totalSupply",
      "outputs": [
        {
          "internalType": "uint256",
          "name": "",
          "type": "uint256"
        }
      ],
      "stateMutability": "view",
      "type": "function"
    },
    {
      "inputs": [
        {
          "internalType": "address",
          "name": "from",
          "type": "address"
        },
        {
          "internalType": "address",
          "name": "to",
          "type": "address"
        },
        {
          "internalType": "uint256",
          "name": "tokenId",
          "type": "uint256"
        }
      ],
      "name": "transferFrom",
      "outputs": [],
      "stateMutability": "nonpayable",
      "type": "function"
    },
    {
      "inputs": [
        {
          "internalType": "address",
          "name": "newOwner",
          "type": "address"
        }
      ],
      "name": "transferOwnership",
      "outputs": [],
      "stateMutability": "nonpayable",
      "type": "function"
    },
    {
      "inputs": [
        {
          "internalType": "uint256",
          "name": "trustId",
          "type": "uint256"
        },
        {
          "internalType": "uint256",
          "name": "startTime",
          "type": "uint256"
        },
        {
          "internalType": "uint256",
          "name": "frequencyInDays",
          "type": "uint256"
        }
      ],
      "name": "updateTrust",
      "outputs": [],
      "stateMutability": "nonpayable",
      "type": "function"
    },
    {
      "inputs": [
        {
          "internalType": "uint256",
          "name": "trustId",
          "type": "uint256"
        },
        {
          "internalType": "address",
          "name": "erc20Token",
          "type": "address"
        },
        {
          "internalType": "uint256",
          "name": "amount",
          "type": "uint256"
        }
      ],
      "name": "withdraw",
      "outputs": [],
      "stateMutability": "nonpayable",
      "type": "function"
    }
  ],
  "bytecode": {
    "object": "0x60806040523480156200001157600080fd5b50604080518082018252600881526713d253d51c9d5cdd60c21b6020808301918252835180850190945260038452624f494f60e81b9084015281519192916200005d91600091620000ec565b50805162000073906001906020840190620000ec565b505050620000906200008a6200009660201b60201c565b6200009a565b620001ce565b3390565b600a80546001600160a01b038381166001600160a01b0319831681179093556040519116919082907f8be0079c531659141344cd1fd0a4f28419497f9722a3daafe3b4186f6b6457e090600090a35050565b828054620000fa9062000192565b90600052602060002090601f0160209004810192826200011e576000855562000169565b82601f106200013957805160ff191683800117855562000169565b8280016001018555821562000169579182015b82811115620001695782518255916020019190600101906200014c565b50620001779291506200017b565b5090565b5b808211156200017757600081556001016200017c565b600181811c90821680620001a757607f821691505b602082108103620001c857634e487b7160e01b600052602260045260246000fd5b50919050565b612ee380620001de6000396000f3fe608060405234801561001057600080fd5b50600436106101735760003560e01c80636ad5ff50116100de57806395d89b4111610097578063c87b56dd11610071578063c87b56dd1461031f578063e63697c814610332578063e985e9c514610345578063f2fde38b1461038157600080fd5b806395d89b41146102f1578063a22cb465146102f9578063b88d4fde1461030c57600080fd5b80636ad5ff501461028c5780636f0372af1461029f57806370a08231146102b2578063715018a6146102c55780637625391a146102cd5780638da5cb5b146102e057600080fd5b806323b872dd1161013057806323b872dd1461021a5780632f745c591461022d5780633b8317ee1461024057806342842e0e146102535780634f6ccce7146102665780636352211e1461027957600080fd5b806301ffc9a71461017857806306fdde03146101a0578063081812fc146101b5578063095ea7b3146101e057806318160ddd146101f55780631f39a14114610207575b600080fd5b61018b6101863660046123bb565b610394565b60405190151581526020015b60405180910390f35b6101a86103a5565b6040516101979190612430565b6101c86101c3366004612443565b610437565b6040516001600160a01b039091168152602001610197565b6101f36101ee366004612471565b61045e565b005b6008545b604051908152602001610197565b6101f961021536600461249d565b610578565b6101f36102283660046124cd565b610664565b6101f961023b366004612471565b610695565b6101f361024e36600461250e565b61072b565b6101f36102613660046124cd565b610773565b6101f9610274366004612443565b61078e565b6101c8610287366004612443565b610821565b6101f961029a36600461253a565b610881565b6101f36102ad36600461256f565b6108e0565b6101f96102c03660046125ac565b610b72565b6101f3610bf8565b6101f36102db3660046125c9565b610c0c565b600a546001600160a01b03166101c8565b6101a8610e79565b6101f36103073660046125f9565b610e88565b6101f361031a366004612696565b610e97565b6101a861032d366004612443565b610ec9565b6101f3610340366004612745565b6112ce565b61018b61035336600461276c565b6001600160a01b03918216600090815260056020908152604080832093909416825291909152205460ff1690565b6101f361038f3660046125ac565b61150a565b600061039f82611583565b92915050565b6060600080546103b49061279a565b80601f01602080910402602001604051908101604052809291908181526020018280546103e09061279a565b801561042d5780601f106104025761010080835404028352916020019161042d565b820191906000526020600020905b81548152906001019060200180831161041057829003601f168201915b5050505050905090565b6000610442826115a8565b506000908152600460205260409020546001600160a01b031690565b600061046982610821565b9050806001600160a01b0316836001600160a01b0316036104db5760405162461bcd60e51b815260206004820152602160248201527f4552433732313a20617070726f76616c20746f2063757272656e74206f776e656044820152603960f91b60648201526084015b60405180910390fd5b336001600160a01b03821614806104f757506104f78133610353565b6105695760405162461bcd60e51b815260206004820152603e60248201527f4552433732313a20617070726f76652063616c6c6572206973206e6f7420746f60448201527f6b656e206f776e6572206e6f7220617070726f76656420666f7220616c6c000060648201526084016104d2565b6105738383611607565b505050565b6000828152600c6020526040812080546001600160a01b031633146105af5760405162461bcd60e51b81526004016104d2906127d4565b60005b600282015481101561060d5760008181526001830160205260409020546001600160a01b038086169116036105fb5760009081526001918201602052604090200154905061039f565b806106058161280f565b9150506105b2565b5060405162461bcd60e51b815260206004820152602560248201527f547279696e6720746f206163636573732061206e6f6e206578697374696e67206044820152643a37b5b2b760d91b60648201526084016104d2565b61066e3382611675565b61068a5760405162461bcd60e51b81526004016104d290612828565b6105738383836116f4565b60006106a083610b72565b82106107025760405162461bcd60e51b815260206004820152602b60248201527f455243373231456e756d657261626c653a206f776e657220696e646578206f7560448201526a74206f6620626f756e647360a81b60648201526084016104d2565b506001600160a01b03919091166000908152600660209081526040808320938352929052205490565b6000838152600c6020526040902080546001600160a01b031633146107625760405162461bcd60e51b81526004016104d2906127d4565b600481019290925560059091015550565b61057383838360405180602001604052806000815250610e97565b600061079960085490565b82106107fc5760405162461bcd60e51b815260206004820152602c60248201527f455243373231456e756d657261626c653a20676c6f62616c20696e646578206f60448201526b7574206f6620626f756e647360a01b60648201526084016104d2565b6008828154811061080f5761080f612876565b90600052602060002001549050919050565b6000818152600260205260408120546001600160a01b03168061039f5760405162461bcd60e51b8152602060048201526018602482015277115490cdcc8c4e881a5b9d985b1a59081d1bdad95b88125160421b60448201526064016104d2565b60008061088d600b5490565b905061089d600b80546001019055565b6108a7858261189b565b6000818152600c6020526040812080546001600160a01b0319163317815560048101869055600581018590556006015590509392505050565b6000848152600c6020526040902080546001600160a01b031633146109175760405162461bcd60e51b81526004016104d2906127d4565b604051636eb1769f60e11b8152336004820152306024820152849084906001600160a01b0383169063dd62ed3e90604401602060405180830381865afa158015610965573d6000803e3d6000fd5b505050506040513d601f19601f82011682018060405250810190610989919061288c565b10156109d75760405162461bcd60e51b815260206004820152601a60248201527f546f6b656e20616c6c6f77616e6365206e6f7420656e6f75676800000000000060448201526064016104d2565b6040516323b872dd60e01b8152336004820152306024820152604481018590526001600160a01b038216906323b872dd906064016020604051808303816000875af1158015610a2a573d6000803e3d6000fd5b505050506040513d601f19601f82011682018060405250810190610a4e91906128a5565b610a8c5760405162461bcd60e51b815260206004820152600f60248201526e151c985b9cd9995c8819985a5b1959608a1b60448201526064016104d2565b60005b6002830154811015610b145760008181526001840160205260409020546001600160a01b03808816911603610b02576000818152600180850160205260408220018054879290610ae09084906128c2565b9091555050600090815260019092016020525060409020600201819055610b6c565b80610b0c8161280f565b915050610a8f565b506000610b22836002015490565b9050610b348360020180546001019055565b600090815260019283016020526040902080546001600160a01b0319166001600160a01b038716178155918201849055506002018190555b50505050565b60006001600160a01b038216610bdc5760405162461bcd60e51b815260206004820152602960248201527f4552433732313a2061646472657373207a65726f206973206e6f7420612076616044820152683634b21037bbb732b960b91b60648201526084016104d2565b506001600160a01b031660009081526003602052604090205490565b610c006118b5565b610c0a600061190f565b565b42600d55815b610c2482610c1f600b5490565b611961565b811015610573576000818152600c60205260409020600401544210610e67576000818152600c6020526040812060050154610c6290620151806128da565b6000838152600c6020526040902060040154610c7e90426128f9565b610c889190612926565b6000838152600c602052604081206006015491925090610ca890836128f9565b6040516331a9108f60e11b8152600481018590529091506000903090636352211e90602401602060405180830381865afa158015610cea573d6000803e3d6000fd5b505050506040513d601f19601f82011682018060405250810190610d0e919061293a565b905060005b6000858152600c6020526040902060020154811015610e3c576000858152600c60209081526040808320848452600101909152812060020154610d579085906128da565b6000878152600c60209081526040808320868452600190810190925290912080549101549192506001600160a01b031690821115610db3576000878152600c602090815260408083208684526001908101909252909120015491505b60405163a9059cbb60e01b81526001600160a01b0385811660048301526024820184905282169063a9059cbb906044016020604051808303816000875af1158015610e02573d6000803e3d6000fd5b505050506040513d601f19601f82011682018060405250810190610e2691906128a5565b5050508080610e349061280f565b915050610d13565b506000848152600c602052604081206006018054849290610e5e9084906128c2565b90915550505050505b80610e718161280f565b915050610c12565b6060600180546103b49061279a565b610e93338383611979565b5050565b610ea13383611675565b610ebd5760405162461bcd60e51b81526004016104d290612828565b610b6c84848484611a47565b6000818152600c602090815260408083205481518083018352601981527f4f494f54727573742c20746f6b656e732068656c643a205c6e000000000000008185015282519384019092528383526060936001600160a01b0390911692905b6000868152600c60205260409020600201548110156111bb576000868152600c602090815260408083208484526001019091528082205481516306fdde0360e01b815291516001600160a01b0390911692869284926306fdde03926004808401939192918290030181865afa158015610fa4573d6000803e3d6000fd5b505050506040513d6000823e601f3d908101601f19168201604052610fcc9190810190612957565b6000898152600c6020908152604080832087845260019081019092529091200154610ff690611a7a565b611063846001600160a01b031663313ce5676040518163ffffffff1660e01b8152600401602060405180830381865afa158015611037573d6000803e3d6000fd5b505050506040513d601f19601f8201168201806040525081019061105b91906129ce565b60ff16611a7a565b60405160200161107694939291906129f1565b60408051601f19818403018152919052935081156110b1578260405160200161109f9190612a96565b60405160208183030381529060405292505b82816001600160a01b03166306fdde036040518163ffffffff1660e01b8152600401600060405180830381865afa1580156110f0573d6000803e3d6000fd5b505050506040513d6000823e601f3d908101601f191682016040526111189190810190612957565b6000898152600c602090815260408083208784526001908101909252909120015461114290611a7a565b611183846001600160a01b031663313ce5676040518163ffffffff1660e01b8152600401602060405180830381865afa158015611037573d6000803e3d6000fd5b6040516020016111969493929190612abb565b60405160208183030381529060405292505080806111b39061280f565b915050610f27565b506000826111c887611a7a565b6111d186611b7b565b6000898152600c60205260409020600401546111ec90611a7a565b6040516020016111ff9493929190612b64565b60408051601f198184030181529181526000888152600c6020522060050154909150819061122c90611a7a565b6000888152600c602052604090206006015461124790611a7a565b8460405160200161125b9493929190612c8e565b60408051601f19818403018152828201909152601d82527f646174613a6170706c69636174696f6e2f6a736f6e3b6261736536342c000000602083015291506112a382611b91565b6040516020016112b4929190612d51565b604051602081830303815290604052945050505050919050565b6000838152600c6020526040902080546001600160a01b031633146113055760405162461bcd60e51b81526004016104d2906127d4565b8260005b60028301548110156114b15760008181526001840160205260409020546001600160a01b0380871691160361149f5760008181526001808501602052604090912001548411156113c15760405162461bcd60e51b815260206004820152603b60248201527f547269656420746f20776974686472617720612062696767657220616d6f756e60448201527f74207468616e2070726573656e7420696e20746865207472757374000000000060648201526084016104d2565b60405163a9059cbb60e01b8152336004820152602481018590526001600160a01b0383169063a9059cbb906044016020604051808303816000875af115801561140e573d6000803e3d6000fd5b505050506040513d601f19601f8201168201806040525081019061143291906128a5565b6114705760405162461bcd60e51b815260206004820152600f60248201526e151c985b9cd9995c8819985a5b1959608a1b60448201526064016104d2565b60008181526001808501602052604082200180548692906114929084906128f9565b9091555050505050505050565b806114a98161280f565b915050611309565b5060405162461bcd60e51b815260206004820152602760248201527f547279696e6720746f2077697468647261772061206e6f6e206578697374696e60448201526633903a37b5b2b760c91b60648201526084016104d2565b6115126118b5565b6001600160a01b0381166115775760405162461bcd60e51b815260206004820152602660248201527f4f776e61626c653a206e6577206f776e657220697320746865207a65726f206160448201526564647265737360d01b60648201526084016104d2565b6115808161190f565b50565b60006001600160e01b0319821663780e9d6360e01b148061039f575061039f82611ce4565b6000818152600260205260409020546001600160a01b03166115805760405162461bcd60e51b8152602060048201526018602482015277115490cdcc8c4e881a5b9d985b1a59081d1bdad95b88125160421b60448201526064016104d2565b600081815260046020526040902080546001600160a01b0319166001600160a01b038416908117909155819061163c82610821565b6001600160a01b03167f8c5be1e5ebec7d5bd14f71427d1e84f3dd0314c0f7b2291e5b200ac8c7c3b92560405160405180910390a45050565b60008061168183610821565b9050806001600160a01b0316846001600160a01b031614806116c857506001600160a01b0380821660009081526005602090815260408083209388168352929052205460ff165b806116ec5750836001600160a01b03166116e184610437565b6001600160a01b0316145b949350505050565b826001600160a01b031661170782610821565b6001600160a01b03161461176b5760405162461bcd60e51b815260206004820152602560248201527f4552433732313a207472616e736665722066726f6d20696e636f72726563742060448201526437bbb732b960d91b60648201526084016104d2565b6001600160a01b0382166117cd5760405162461bcd60e51b8152602060048201526024808201527f4552433732313a207472616e7366657220746f20746865207a65726f206164646044820152637265737360e01b60648201526084016104d2565b6117d8838383611d34565b6117e3600082611607565b6001600160a01b038316600090815260036020526040812080546001929061180c9084906128f9565b90915550506001600160a01b038216600090815260036020526040812080546001929061183a9084906128c2565b909155505060008181526002602052604080822080546001600160a01b0319166001600160a01b0386811691821790925591518493918716917fddf252ad1be2c89b69c2b068fc378daa952ba7f163c4a11628f55a4df523b3ef91a4505050565b610e93828260405180602001604052806000815250611d3f565b600a546001600160a01b03163314610c0a5760405162461bcd60e51b815260206004820181905260248201527f4f776e61626c653a2063616c6c6572206973206e6f7420746865206f776e657260448201526064016104d2565b600a80546001600160a01b038381166001600160a01b0319831681179093556040519116919082907f8be0079c531659141344cd1fd0a4f28419497f9722a3daafe3b4186f6b6457e090600090a35050565b60008183106119705781611972565b825b9392505050565b816001600160a01b0316836001600160a01b0316036119da5760405162461bcd60e51b815260206004820152601960248201527f4552433732313a20617070726f766520746f2063616c6c65720000000000000060448201526064016104d2565b6001600160a01b03838116600081815260056020908152604080832094871680845294825291829020805460ff191686151590811790915591519182527f17307eab39ab6107e8899845ad3d59bd9653f200f220920489ca2b5937696c31910160405180910390a3505050565b611a528484846116f4565b611a5e84848484611d72565b610b6c5760405162461bcd60e51b81526004016104d290612d80565b606081600003611aa15750506040805180820190915260018152600360fc1b602082015290565b8160005b8115611acb5780611ab58161280f565b9150611ac49050600a83612926565b9150611aa5565b60008167ffffffffffffffff811115611ae657611ae6612627565b6040519080825280601f01601f191660200182016040528015611b10576020820181803683370190505b5090505b84156116ec57611b256001836128f9565b9150611b32600a86612dd2565b611b3d9060306128c2565b60f81b818381518110611b5257611b52612876565b60200101906001600160f81b031916908160001a905350611b74600a86612926565b9450611b14565b606061039f6001600160a01b0383166014611e73565b60608151600003611bb057505060408051602081019091526000815290565b6000604051806060016040528060408152602001612e6e6040913990506000600384516002611bdf91906128c2565b611be99190612926565b611bf49060046128da565b67ffffffffffffffff811115611c0c57611c0c612627565b6040519080825280601f01601f191660200182016040528015611c36576020820181803683370190505b509050600182016020820185865187015b80821015611ca2576003820191508151603f8160121c168501518453600184019350603f81600c1c168501518453600184019350603f8160061c168501518453600184019350603f8116850151845350600183019250611c47565b5050600386510660018114611cbe5760028114611cd157611cd9565b603d6001830353603d6002830353611cd9565b603d60018303535b509195945050505050565b60006001600160e01b031982166380ac58cd60e01b1480611d1557506001600160e01b03198216635b5e139f60e01b145b8061039f57506301ffc9a760e01b6001600160e01b031983161461039f565b61057383838361200f565b611d4983836120c7565b611d566000848484611d72565b6105735760405162461bcd60e51b81526004016104d290612d80565b60006001600160a01b0384163b15611e6857604051630a85bd0160e11b81526001600160a01b0385169063150b7a0290611db6903390899088908890600401612de6565b6020604051808303816000875af1925050508015611df1575060408051601f3d908101601f19168201909252611dee91810190612e23565b60015b611e4e573d808015611e1f576040519150601f19603f3d011682016040523d82523d6000602084013e611e24565b606091505b508051600003611e465760405162461bcd60e51b81526004016104d290612d80565b805181602001fd5b6001600160e01b031916630a85bd0160e11b1490506116ec565b506001949350505050565b60606000611e828360026128da565b611e8d9060026128c2565b67ffffffffffffffff811115611ea557611ea5612627565b6040519080825280601f01601f191660200182016040528015611ecf576020820181803683370190505b509050600360fc1b81600081518110611eea57611eea612876565b60200101906001600160f81b031916908160001a905350600f60fb1b81600181518110611f1957611f19612876565b60200101906001600160f81b031916908160001a9053506000611f3d8460026128da565b611f489060016128c2565b90505b6001811115611fc0576f181899199a1a9b1b9c1cb0b131b232b360811b85600f1660108110611f7c57611f7c612876565b1a60f81b828281518110611f9257611f92612876565b60200101906001600160f81b031916908160001a90535060049490941c93611fb981612e40565b9050611f4b565b5083156119725760405162461bcd60e51b815260206004820181905260248201527f537472696e67733a20686578206c656e67746820696e73756666696369656e7460448201526064016104d2565b6001600160a01b03831661206a5761206581600880546000838152600960205260408120829055600182018355919091527ff3f7a9fe364faab93b216da50a3214154f22a0a2b415b23a84c8169e8b636ee30155565b61208d565b816001600160a01b0316836001600160a01b03161461208d5761208d8382612215565b6001600160a01b0382166120a457610573816122b2565b826001600160a01b0316826001600160a01b031614610573576105738282612361565b6001600160a01b03821661211d5760405162461bcd60e51b815260206004820181905260248201527f4552433732313a206d696e7420746f20746865207a65726f206164647265737360448201526064016104d2565b6000818152600260205260409020546001600160a01b0316156121825760405162461bcd60e51b815260206004820152601c60248201527f4552433732313a20746f6b656e20616c7265616479206d696e7465640000000060448201526064016104d2565b61218e60008383611d34565b6001600160a01b03821660009081526003602052604081208054600192906121b79084906128c2565b909155505060008181526002602052604080822080546001600160a01b0319166001600160a01b03861690811790915590518392907fddf252ad1be2c89b69c2b068fc378daa952ba7f163c4a11628f55a4df523b3ef908290a45050565b6000600161222284610b72565b61222c91906128f9565b60008381526007602052604090205490915080821461227f576001600160a01b03841660009081526006602090815260408083208584528252808320548484528184208190558352600790915290208190555b5060009182526007602090815260408084208490556001600160a01b039094168352600681528383209183525290812055565b6008546000906122c4906001906128f9565b600083815260096020526040812054600880549394509092849081106122ec576122ec612876565b90600052602060002001549050806008838154811061230d5761230d612876565b600091825260208083209091019290925582815260099091526040808220849055858252812055600880548061234557612345612e57565b6001900381819060005260206000200160009055905550505050565b600061236c83610b72565b6001600160a01b039093166000908152600660209081526040808320868452825280832085905593825260079052919091209190915550565b6001600160e01b03198116811461158057600080fd5b6000602082840312156123cd57600080fd5b8135611972816123a5565b60005b838110156123f35781810151838201526020016123db565b83811115610b6c5750506000910152565b6000815180845261241c8160208601602086016123d8565b601f01601f19169290920160200192915050565b6020815260006119726020830184612404565b60006020828403121561245557600080fd5b5035919050565b6001600160a01b038116811461158057600080fd5b6000806040838503121561248457600080fd5b823561248f8161245c565b946020939093013593505050565b600080604083850312156124b057600080fd5b8235915060208301356124c28161245c565b809150509250929050565b6000806000606084860312156124e257600080fd5b83356124ed8161245c565b925060208401356124fd8161245c565b929592945050506040919091013590565b60008060006060848603121561252357600080fd5b505081359360208301359350604090920135919050565b60008060006060848603121561254f57600080fd5b833561255a8161245c565b95602085013595506040909401359392505050565b6000806000806080858703121561258557600080fd5b8435935060208501356125978161245c565b93969395505050506040820135916060013590565b6000602082840312156125be57600080fd5b81356119728161245c565b600080604083850312156125dc57600080fd5b50508035926020909101359150565b801515811461158057600080fd5b6000806040838503121561260c57600080fd5b82356126178161245c565b915060208301356124c2816125eb565b634e487b7160e01b600052604160045260246000fd5b604051601f8201601f1916810167ffffffffffffffff8111828210171561266657612666612627565b604052919050565b600067ffffffffffffffff82111561268857612688612627565b50601f01601f191660200190565b600080600080608085870312156126ac57600080fd5b84356126b78161245c565b935060208501356126c78161245c565b925060408501359150606085013567ffffffffffffffff8111156126ea57600080fd5b8501601f810187136126fb57600080fd5b803561270e6127098261266e565b61263d565b81815288602083850101111561272357600080fd5b8160208401602083013760006020838301015280935050505092959194509250565b60008060006060848603121561275a57600080fd5b8335925060208401356124fd8161245c565b6000806040838503121561277f57600080fd5b823561278a8161245c565b915060208301356124c28161245c565b600181811c908216806127ae57607f821691505b6020821081036127ce57634e487b7160e01b600052602260045260246000fd5b50919050565b6020808252600b908201526a2737ba1031b932b0ba37b960a91b604082015260600190565b634e487b7160e01b600052601160045260246000fd5b600060018201612821576128216127f9565b5060010190565b6020808252602e908201527f4552433732313a2063616c6c6572206973206e6f7420746f6b656e206f776e6560408201526d1c881b9bdc88185c1c1c9bdd995960921b606082015260800190565b634e487b7160e01b600052603260045260246000fd5b60006020828403121561289e57600080fd5b5051919050565b6000602082840312156128b757600080fd5b8151611972816125eb565b600082198211156128d5576128d56127f9565b500190565b60008160001904831182151516156128f4576128f46127f9565b500290565b60008282101561290b5761290b6127f9565b500390565b634e487b7160e01b600052601260045260246000fd5b60008261293557612935612910565b500490565b60006020828403121561294c57600080fd5b81516119728161245c565b60006020828403121561296957600080fd5b815167ffffffffffffffff81111561298057600080fd5b8201601f8101841361299157600080fd5b805161299f6127098261266e565b8181528560208385010111156129b457600080fd5b6129c58260208301602086016123d8565b95945050505050565b6000602082840312156129e057600080fd5b815160ff8116811461197257600080fd5b60008551612a03818460208a016123d8565b61016960f51b9083019081528551612a22816002840160208a016123d8565b6801030b6b7bab73a1d160bd1b600292909101918201528451612a4c81600b8401602089016123d8565b6a010143232b1b4b6b0b639960ad1b600b92909101918201528351612a788160168401602088016123d8565b6214ae3760e91b601692909101918201526019019695505050505050565b60008251612aa88184602087016123d8565b600b60fa1b920191825250600101919050565b600085516020612ace8285838b016123d8565b683d913730b6b2911d1160b91b9184019182528651612af38160098501848b016123d8565b6a11161130b6b7bab73a111d60a91b600993909101928301528551612b1e8160148501848a016123d8565b6b16113232b1b4b6b0b639911d60a11b601493909101928301528451612b49818385018489016123d8565b607d60f81b9201908101919091526021019695505050505050565b6f3d913232b9b1b934b83a34b7b7111d1160811b81528451600090612b90816010850160208a016123d8565b7f222c226e616d65223a224f494f5472757374204e4654202300000000000000006010918401918201528551612bcd816028840160208a016123d8565b7f222c22696d616765223a22646174613a696d6167652f7376673b62617365363460289290910191820152600b60fa1b60488201527f222c226261636b67726f756e645f636f6c6f72223a226666666666662200000060498201526b161131b932b0ba37b9111d1160a11b60668201528451612c508160728401602089016123d8565b6e11161139ba30b93a2fba34b6b2911d60891b607292909101918201528351612c808160818401602088016123d8565b016081019695505050505050565b60008551612ca0818460208a016123d8565b741611333932b8bab2b731bcafb4b72fb230bcb9911d60591b9083019081528551612cd2816015840160208a016123d8565b74161134b739ba30b63636b2b73a39afb830b4b2111d60591b601592909101918201528451612d0881602a8401602089016123d8565b6a2c22746f6b656e73223a5b60a81b602a92909101918201528351612d348160358401602088016123d8565b615d7d60f01b603592909101918201526037019695505050505050565b60008351612d638184602088016123d8565b835190830190612d778183602088016123d8565b01949350505050565b60208082526032908201527f4552433732313a207472616e7366657220746f206e6f6e20455243373231526560408201527131b2b4bb32b91034b6b83632b6b2b73a32b960711b606082015260800190565b600082612de157612de1612910565b500690565b6001600160a01b0385811682528416602082015260408101839052608060608201819052600090612e1990830184612404565b9695505050505050565b600060208284031215612e3557600080fd5b8151611972816123a5565b600081612e4f57612e4f6127f9565b506000190190565b634e487b7160e01b600052603160045260246000fdfe4142434445464748494a4b4c4d4e4f505152535455565758595a6162636465666768696a6b6c6d6e6f707172737475767778797a303132333435363738392b2fa26469706673582212206c19df9ec41c494bc237f90dc1b7b5137cec51694f37b50b8e81d692a463f86364736f6c634300080d0033",
    "linkReferences": {}
  },
  "methodIdentifiers": {
    "approve(address,uint256)": "095ea7b3",
    "balanceOf(address)": "70a08231",
    "createTrust(address,uint256,uint256)": "6ad5ff50",
    "deposit(uint256,address,uint256,uint256)": "6f0372af",
    "distribute(uint256,uint256)": "7625391a",
    "getApproved(uint256)": "081812fc",
    "getTokenAmount(uint256,address)": "1f39a141",
    "isApprovedForAll(address,address)": "e985e9c5",
    "name()": "06fdde03",
    "owner()": "8da5cb5b",
    "ownerOf(uint256)": "6352211e",
    "renounceOwnership()": "715018a6",
    "safeTransferFrom(address,address,uint256)": "42842e0e",
    "safeTransferFrom(address,address,uint256,bytes)": "b88d4fde",
    "setApprovalForAll(address,bool)": "a22cb465",
    "supportsInterface(bytes4)": "01ffc9a7",
    "symbol()": "95d89b41",
    "tokenByIndex(uint256)": "4f6ccce7",
    "tokenOfOwnerByIndex(address,uint256)": "2f745c59",
    "tokenURI(uint256)": "c87b56dd",
    "totalSupply()": "18160ddd",
    "transferFrom(address,address,uint256)": "23b872dd",
    "transferOwnership(address)": "f2fde38b",
    "updateTrust(uint256,uint256,uint256)": "3b8317ee",
    "withdraw(uint256,address,uint256)": "e63697c8"
  },
  "id": 21
}